S015000050726F6A6563744D61737465722E73726563CC
S11300000C942A000C94E2010C9447000C944700D1
S11300100C9447000C9447000C9447000C94470040
S11300200C9447000C9447000C9447000C94470030
S11300300C9447000C9447000C9447000C94470020
S11300400C9447000C9447000C94D1010C94470085
S11300500C94470011241FBECFE5D4E0DEBFCDBF12
S113006010E0A0E6B0E0E8EFF3E002C005900D92E6
S1130070A43DB107D9F720E0A4EDB0E001C01D9282
S1130080A73DB207E1F70E9440010C94FA010C94D9
S113009000008FE08ABB8FEF8BBB08958FEF8BBB83
S11300A0D89829B3207F203FB9F481E090E0EFEFA6
S11300B041E050E0682FEBBB7BB39A01082E02C0ED
S11300C0220F331F0A94E2F7209527232BBB29B371
S11300D0207F203F39F001C060E089B3807F803FFA
S11300E0E1F706C061E0680F01968430910511F7CD
S11300F0643009F44FC06130C1F028F0623031F14E
S11301006330A9F149C0203B09F448C018F42037F2
S113011031F00BC0203D29F0203E29F006C08FE2CB
S1130120089588E3089587E30895203BC9F118F4FE
S1130130203731F00BC0203D29F0203E29F006C0C5
S11301408AE2089585E3089584E30895203B51F1FC
S113015018F4203731F00BC0203D29F0203E29F05F
S113016006C08DE2089582E3089581E30895203B5B
S1130170D9F018F4203731F007C0203D39F0203E83
S113018039F002C08BE2089580E0089580E3089579
S113019083E4089580E0089580E0089589E3089554
S11301A086E3089583E308958DE30895909885BBCD
S11301B0919A89EF90E00197F1F700C000009198BF
S11301C008958FEF84BB889A899A88E390E00E940F
S11301D0D6008CE090E00E94D6000895909A85BBEA
S11301E0919A89EF90E00197F1F700C0000091988F
S11301F00895CF93DF93EC018881882331F0219611
S11302000E94EE0089918111FBCFDF91CF91089577
S1130210CF93DF93EC018881882361F021960E94BB
S1130220EE0083E294EF0197F1F700C0000089919A
S11302308111F5CFDF91CF910895909881E085BB2E
S1130240919A89EF90E00197F1F700C0000091982E
S11302500895811107C0862F90E080589F4F0E9417
S1130260D6000895813031F4862F90E080549F4F5A
S11302700E94D600089580E68BBF82E085BF089572
S113028078940E9449000E94E1000E94F5010E94B6
S11302903B0165E081E00E94290180E690E00E9434
S11302A008012FEF84E39CE0215080409040E1F767
S11302B000C000000E941D0180E5C0E00E94EE0025
S11302C0CF5FEC2FF0E0E359FF4F80818111F6CF2F
S11302D01092D6001092D400D0E08091D6008330E2
S11302E059F50E941D016CE081E00E94290185E816
S11302F090E00E9408011092D6008091D4008F5F94
S11303008093D4008091D400833091F40E941D0125
S113031065E080E00E9429018FE890E00E940801D6
S113032066E081E00E94290188EA90E00E940801C9
S11303308091D4008330E1F38091D500833061F45F
S11303400E941D016CE081E00E9429018EEB90E087
S11303500E9408011092D5000E944E00C82F8823E5
S113036009F4BBCF833459F40E941D016CE081E091
S11303700E94290188EC90E00E94F900AECFD430AD
S113038019F0D11104C001C0D0E00E941D01DF5F4B
S11303908C2F0E94EE0080ED8C0F880F0E94F101DB
S11303A09CCF1F920F920FB60F9211248F9383E06C
S11303B08093D5001092D4008F910F900FBE0F90B0
S11303C01F9018951F920F920FB60F9211248F93BE
S11303D083E08093D6008F910F900FBE0F901F90F3
S11303E018958FB9779BFECF089580EA87BB81E586
S10B03F08DB90895F894FFCFC4
S11303F848656C6C6F2053616D79200000506C6502
S113040861736520456E7465722050617373776FEC
S113041872643A000052454A454354454400005426
S11304286F6F206D616E792057726F6E672050610F
S11304387373776F72640000506C65617365204351
S11304486F6E746163742041646D696E000041438A
S113045843455054454400005374617274204F76E8
S107046865720000B5
S9030000FC
