S014000050726F6A656374536C6176652E737265633E
S11300000C942A000C9447000C9447000C9447006D
S11300100C944E010C9447000C9447000C94470038
S11300200C9447000C9447000C94D6000C941C01CB
S11300300C9447000C9447000C9447000C94470020
S11300400C9447000C9447000C9447000C94470010
S11300500C94470011241FBECFE5D4E0DEBFCDBF12
S113006010E0A0E6B0E0EEE4F6E002C005900D92E8
S1130070A43DB107D9F721E0A4EDB0E001C01D9281
S1130080A431B207E1F70E94B1010C9425030C944A
S11300900000CF93DF93C82FD62F0E94BC000E948C
S11300A0C5008830C9F480EA0E94C8000E94C500D7
S11300B08831A1F48C2F0E94C8000E94C5008832A8
S11300C079F48D2F0E94C8000E94C500883251F433
S11300D00E94C20085E007C081E005C082E003C041
S11300E083E001C084E0DF91CF9108951F93CF9303
S11300F0DF93182FEB010E94BC000E94C5008830DA
S113010031F580EA0E94C8000E94C500883109F5D3
S1130110812F0E94C8000E94C5008832E1F40E9429
S1130120BC000E94C5008031C1F481EA0E94C8006D
S11301300E94C500803499F40E94CF0088830E94F5
S1130140C500883571F40E94C20087E00BC081E0CD
S113015009C082E007C083E005C084E003C085E0F5
S113016001C086E0DF91CF911F91089584E086BF9E
S113017011B881E080B9089584EA86BF06B607FE07
S1130180FDCF089584E986BF089581B1887F0895DD
S113019083B984E886BF06B607FEFDCF089584E8D8
S11301A086BF06B607FEFDCF83B108951F920F9256
S11301B00FB60F9211242F933F934F935F936F9336
S11301C07F938F939F93AF93BF93CF93EF93FF93BB
S11301D0C091D6000E940D03EC2FF0E0E050FF4FD9
S11301E08083E091D600A091D600F0E0E050FF4F6C
S11301F0B0E0A050BF4F8C918F708083E091D60007
S1130200F0E0E050FF4F80818BBB8091D6008F5F80
S11302108093D600FF91EF91CF91BF91AF919F91C1
S11302208F917F916F915F914F913F912F910F909B
S11302300FBE0F901F9018951F920F920FB60F923A
S113024011242F933F934F935F936F937F938F93D7
S11302509F93AF93BF93CF93EF93FF93C091D70036
S11302600E942103EC2FF0E0E451FF4F8083809142
S1130270D7008F5F8093D700FF91EF91CF91BF910B
S1130280AF919F918F917F916F915F914F913F912A
S11302902F910F900FBE0F901F9018951F920F92E1
S11302A00FB60F9211242F933F934F935F936F9345
S11302B07F938F939F93AF93BF93EF93FF9308B66E
S11302C006FE26C080E488BF8091D500882331F0E3
S11302D08091D50081508093D5001AC08091D400BC
S11302E08823B1F08091D500811107C00E940203D8
S11302F08091D40081508093D4008091D4008130C7
S113030039F40E9405038091D40081508093D40075
S1130310FF91EF91BF91AF919F918F917F916F91D9
S11303205F914F913F912F910F900FBE0F901F90AF
S11303301895969A2FE788E391E0215080409040E9
S1130340E1F700C0000096980895959A2FE788E396
S113035091E0215080409040E1F700C00000959862
S11303600895CF93DF931F92CDB7DEB78EEF8CBF86
S11303700E94B6000E9408038FEF8ABB0E94F90214
S11303800E9416030E9411038E9A96988D9A95984E
S1130390789462E381E090E00E9449008FE39CE955
S11303A00197F1F700C0000061E382E090E00E9451
S11303B04900EFE3FCE93197F1F700C0000061E385
S11303C083E090E00E9449008FE39CE90197F1F7F4
S11303D000C0000062E384E090E00E944900EFE383
S11303E0FCE93197F1F700C0000061E385E090E09B
S11303F00E9449008FE39CE90197F1F700C00000D7
S113040061E386E090E00E944900EFE3FCE9319764
S1130410F1F700C0000061E387E090E00E9449002A
S11304208FE39CE90197F1F700C0000061E388E0E5
S113043090E00E944900EFE3FCE93197F1F700C036
S113044000000F2EF8EDEF2EF0E0FF2EF02D01E06E
S113045010E0BE016F5F7F4FC8010E947600898162
S1130460F70181937F010F5F1F4F0A30110589F750
S113047088E410E090E00E941D031F5FE12FF0E08C
S1130480E05AFF4F80818111F5CF80E510E090E0C4
S11304900E941D031F5FE12FF0E0E857FF4F8081AA
S11304A08111F5CF0F2EFCEE8F2EF0E09F2EF02D54
S11304B00F2EF8EDAF2EF0E0BF2EF02D0F2EF1E051
S11304C06F2EF1E07F2EF02D512C0F2EFBED2F2EF1
S11304D0F0E03F2EF02D0F2EF0E0EF2EF1E0FF2E96
S11304E0F02D0F2EFDEDCF2EF0E0DF2EF02D8091BC
S11304F0D7008430A1F55092D700F4019081F50122
S1130500808198131DC0EDEEF0E09081E9EDF0E0FC
S11305108081981311C0EEEEF0E09081EAEDF0E0F6
S1130520808198130BC0EFEEF0E09081F10180819F
S11305309817B9F013E005C011E003C012E001C040
S1130540152D8AE0052D90E00E941D030F5FE02F1A
S1130550F0E0E056FF4F80818111F5CF03C0152DE7
S113056001C014E08091D600843019F55092D60071
S1130570ECEDF0E080818053F7019081981799F1B8
S113058009C09D9181918053981304C01F5F121379
S1130590F8CF0FC08AE0052D90E00E941D030F5F85
S11305A0E02FF0E0E056FF4F80818111F5CF0E94EB
S11305B0A501143009F09BCF8AE010E090E00E947E
S11305C01D031F5FE12FF0E0E354FF4F8081811191
S11305D0F5CF0E94FF028CE38093D5008093D40072
S11305E00E94990171CFD301F60124E0210F1F5F0E
S11305F0C8CFB89AB99A8DE683BFBB9A0895C19AB9
S1130600C0980895C09AC1980895C098C198089553
S113061080E487BB80EC8DB90895779BFECF8FB1C2
S1130620089587E385BD80E489BF089583E389B98C
S113063088E98AB986E880BD08955D9BFECF8CB9B0
S111064008955F9BFECF8CB10895F894FFCF10
S113064E48656C6C6F2C2057656C636F6D652074F8
S113065E6F2041646D696E20436F6E74726F6C20EF
S113066E526F6F6D0A0D0000506C65617365204505
S113067E6E7465722050617373776F72643A000002
S113068E0A0D57726F6E672050617373776F7264C1
S113069E2054727920416761696E3A00000A0D5048
S11306AE617373776F7264204163636570746564FC
S10706BE0A0D00001D
S9030000FC
